:0600000002002B0200EAE1
:03000B000200EB05
:03001300020134B3
:03001B00020135AA
:03002300020136A1
:070084007509C0750AF9754A
:06008B000BA4750CB0751A
:060091000D99750E927539
:060097000F827510F875E0
:06009D0011807512907540
:0600A3001388751483753B
:0600A90015A77516A175F4
:0500AF00178675188E94
:0300B40002002621
:050026001200D680FE6F
:0400B700AA82AB83EB
:0800BB00EA4B60167C787D0021
:0B00C300EC4D60071CBCFFF81D80F531
:0700CE001ABAFFE91B80E6EE
:0100D5002208
:0C00D600758911D2A9D2AFD28CD29075DE
:0800E20008019003E80200B7D9
:0100EA0032E3
:0E00EB00C0E0C000C0D075D000758CFC758AD6
:0900F90018B20030001AD2A085F3
:0C01020008E0E5E0C4540FF5E0E5E0245F
:0B010E0009F886E085E080C2A18014A3
:0B011900D2A18508E053E00FE5E024D0
:0901240009F886E085E080C2A024
:07012D00D0D0D000D0E03279
:010134003298
:010135003297
:010136003296
:06005A00E478FFF6D8FD7A
:080038007900E94400601B7A25
:050040000090013B7877
:030045000075A0A3
:0A00480000E493F2A308B8000205DB
:08005200A0D9F4DAF275A0FF59
:080060007800E84400600A7911
:030068000075A080
:06006B0000E4F309D8FCDB
:080071007800E84400600C79FE
:0B00790000900000E4F0A3D8FCD9FACE
:03002B00758120BC
:0A002E00120137E58260030200268C
:0401370075820022AB
:00000001FF
