:03000000020008F3
:0300610002000397
:0500030012058580FEDE
:0E00640053877F53892F438920758DFDC29FDE
:0B007200D29ED29CD28EC299C298226E
:03007D00858299E0
:0500800010990280FB55
:010085002258
:0500860010980280FB50
:04008B0085998222AF
:05008F0010980280FB47
:0A00940085998212007D8599822271
:06009E00AA82AB83ACF066
:0E00A4008A828B838CF0120652FD60188D82CA
:0E00B200C002C003C00412007DD004D003D0F1
:0800C000020ABA00DF0B80DC2C
:0100C8002215
:0600C900AA82AB83ACF03B
:0E00CF00C002C003C00412008FAD82D004D066
:0E00DD0003D0028A828B838CF0ED120617BDD1
:0400EB000D0280077B
:0700EF000ABA00DC0B80D906
:0A00F6008A828B838CF0E402061767
:0A010000C008858108C082C083E5B5
:0C010A0081240AF581E5082403F8762B17
:0A011600E50824FBF8E5082404F9CD
:0C012000E6F70809E6F70809E6F7A8086A
:0C012C000808E630E712E5082403F87626
:0C0138002DA80808C3E496F608E496F62B
:0C014400E5082404F886040886020886FA
:03015000037D002C
:0E015300C002C003C004C005740AC0E0E4C0CE
:0C016100E0A80808868208868312066E5B
:0E016D00AE8215811581D005D004D003D002DA
:0E017B0074302E8C828A838BF0120617A3AC90
:0E01890082AA830D8D06C002C003C004C0050B
:0C019700740AC0E0E4C0E0A808088682FA
:0C01A3000886831206ABA80808A6820894
:0E01AF00A68315811581D005D004D003D0029F
:0B01BD00A80808E60846708E8D06E5D5
:0C01C800082403F8B62D0E8C828A838B6D
:0901D400F0742D120617ED04FE73
:0B01DD00EEC313FAA80808E4F608F6C9
:0C01E8008A057F00A80808C3E69D08E611
:0E01F40064808FF063F08095F040030202B942
:0C020200C002E5082404F8EE26FBE40826
:0B020E0036FC088605E5082404F8A96A
:0C0219000809E726C0E009E70836C0E04D
:0C02250008E6C0E0E508240AF8D0E0F686
:0C02310018D0E0F618D0E0F6E50824082C
:0C023D00F886820886830886F0E5082415
:0D02490007F9120652F78B828C838DF0E5C9
:0C025600082407F8E61206178E077D004A
:050262001FBFFF011D9C
:0C026700A80808EFC396FFED0896FDE51F
:0C027300082404F8EF26FFED0836FD0813
:0D027F0086028F828D838AF0120652FBE505
:0C028C00082408F886820886830886F0A3
:0C029800EB1206178F828D838AF0E508B8
:0C02A4002407F8E6120617A8080806B6A2
:0402B000000208063A
:0502B400D0020201E888
:0C02B900E5082404F8EE26FEE40836FAFE
:0E02C5000886038E828A838BF0E4120617856A
:0502D3000881D00822A3
:0A02D800C008E581F5082404F58153
:0C02E200AA82AB83ACF07D007E00A8086F
:0E02EE0008762B8A828B838CF0120652FFBF9B
:0C02FC002D0AA80808762D0ABA00010B94
:0C030800A8080808A60208A60308A6041E
:0C031400A808080886820886830886F086
:0D032000120652FB6039C003C005C00690F4
:0E032D00000A120630AF82AA8315811581D016
:0E033B0003EB3395E0FCEB24D0FBEC34FFFC2D
:0C034900EB2FFFEC3AFA8F058A06A8089B
:08035500080806B600020806C4
:02035D0080B569
:0C035F00A80808B62D07C3E49DFDE49E2D
:01036B00FE93
:0A036C008D828E83850881D008225F
:0A037600C008E581F5082407F581B1
:0C038000AA82AB83AC080C8C057E007FC9
:0E038C0040C004C005C006C0078A828B8312E1
:0E039A000100158115811581D0047A007B4089
:0C03A8008C828A838BF012009E850881F5
:0303B400D008224C
:0A03B700C008E581F5082407F58170
:0C03C100AA080A8A037C007D408B828C15
:0E03CD00838DF0C0021200C9D0027B007C407C
:0C03DB008A828B838CF01202D885088186
:0303E700D0082219
:0E03EA00E582FAC4540F90076293F582C002B8
:0E03F80012007DD002740F5A90076293F582B6
:0304060002007D74
:0D040900AA82AB838B048C82C002C0031258
:0B04160003EAD003D0028A820203EA4E
:0E04210012008FAA82C3EA648094B040117466
:0E042F00B98AF063F08095F04006EA24D0F51B
:02043D00822219
:0E043F00C3EA648094C1401174C68AF063F071
:0B044D008095F0400674C92AF5822259
:0E045800C3EA648094E1401174E68AF063F018
:0B0466008095F0400674A92AF5822260
:04047100758200226E
:0E047500120421E582C454F0FAC002120421E0
:09048300AB82D002EB2AF58222C3
:0E048C00120475AB827A00C002C00312047520
:0E049A00AC82D003D0027D00EC2AF582ED3B4F
:0304A800F58322B7
:0304AB0043901F5C
:0804AE003094FDAA9053020FE7
:0604B6002094FD8A822261
:0304BC0043901F4B
:0E04BF003094FDE590540FFA90076293F58299
:0C04CD00C00212007D90077375F08012D1
:0404D900009ED002AF
:0604DD002094FD8A82223A
:0E04E3001204BCE582C454F0FAC0021204BC3C
:0904F100AB82D002EB2AF5822255
:0E04FA001204E3AB827A00C002C0031204E3D6
:0E050800AC82D003D0027D00EC2AF582ED3BE0
:03051600F5832248
:0B05190043901F30940BAA9053020F78
:060524002094FD8A8222F2
:04052A0075821022A4
:04052E007A007B00D4
:0E053200C002C0031204ABAC82D003D0028C16
:0405400005BC0A00EC
:0E054400503AED90076293F582C002C003C0EA
:0E0552000512007DD005D003D002C005C00206
:0E056000C00390000A120630AC82AE831581F3
:0E056E001581D0057F00ED2CFCEF3EFE8C02C7
:04057C008E0380B2B8
:050580008A828B83223A
:0A05850012006490077675F08012F2
:02058F00009ECC
:0A05910090077E75F08012009E12A4
:0E059B0004BCAA827B0090078775F080C00226
:0E05A900C00312009E1204BCAC82D003D0022C
:0E05B7007D008A828B83C002C003C004C00591
:0A05C50012037690079175F0801282
:0E05CF00009ED005D0048C828D83C004C00530
:0A05DD0012037690079575F0801266
:0E05E700009ED005D004D003D002C004C00591
:0E05F5008A828B83120630AA82AB8315811591
:0E060300818A828B8312037690077375F080D4
:0606110012009E0205919B
:0E076200303132333435363738394142434472
:03077000454600FB
:030773000D0A006C
:08077600546573743A0D0A008A
:09077E0046697273743A0D0A0019
:0A0787005365636F6E643A0D0A00BB
:04079100202A2000FA
:04079500203D2000E3
:06003700E478FFF6D8FD9D
:080015007900E94400601B7A48
:05001D00009007997836
:030022000075A0C6
:0A00250000E493F2A308B8000205FE
:08002F00A0D9F4DAF275A0FF7C
:0E06170020F71030F6118883A88220F507F630
:05062500A883758300AD
:01062A0022AD
:03062B00F280F763
:02062E00F022B8
:0E06300074FE2581F8E68582F0A4C0E0858284
:0E063E00F018E6A4F582D0E025F0C58386F022
:06064C00A42583F58322C2
:08003D007800E84400600A7934
:030045000075A0A3
:0600480000E4F309D8FCFE
:08004E007800E84400600C7921
:0B00560000900000E4F0A3D8FCD9FAF1
:03000800758108F7
:0A000B0012075EE5826003020003A5
:0E06520020F71430F6148883A88220F507E6FE
:06066000A883758300224F
:03066600E280F738
:03066900E49322F5
:02066C00E0228A
:0E066E00C2D5E58330E70DD2D5E4C39582F501
:06067C0082E49583F58382
:0E068200E58124FEF8E630E70918E4C396F699
:04069000E40896F6EE
:0E06940086011886001206F230D50BE4C395DD
:0806A20082F582E49583F583E3
:0106AA00222D
:0E06AB00C2D5E58330E70DD2D5E4C39582F5C4
:0606B90082E49583F58345
:0E06BF00E58124FEF8E630E70AB2D518E4C360
:0506CD0096F6E408961A
:0E06D200F918E6F812073730D50BE4C395820D
:0706E000F582E49583F58328
:0106E70022F0
:0A06E800E58124FEF8860118860063
:0606F200E84960367A01C0
:0E06F800E825E0F8E933400EF9E58298E58345
:060706009940030A80EC9B
:02070C00C3E93F
:05070E0013F9E813F8E7
:0E071300C3E58298F5F0E583994005F58385EE
:02072100F08264
:09072300C3E913F9E813F8DAE761
:01072C0022AA
:0A072D00E58124FEF8E6F918E6F86D
:050737007A10E4FBFC58
:0E073C00E58225E0F582E58333F583EB33FBA0
:0E074A00EC33FCEB98F5F0EC994006FCABF0BC
:03075800438201D8
:03075B00DADF22C0
:04075E00758200227E
:00000001FF
