:03000000020008F3
:0300610002000397
:0500030012011280FE55
:0300640043901FA7
:080067003094FDAA9053020F32
:06006F002094FD8A8222AC
:0300750043901F96
:080078003094FDAA9053020F21
:060080002094FD8A82229B
:0E008600120075E582C454F0FAC00212007533
:09009400AB82D002EB2AF58222B6
:0E009D00120086AB827A00C002C003120086F9
:0E00AB00AC82D003D0027D00EC2AF582ED3B42
:0300B900F58322AA
:0B00BC0043901F30940BAA9053020FDA
:0600C7002094FD8A822254
:0400CD007582102206
:0400D1007A007B0036
:0E00D500C002C003120064AC82D003D0028CC3
:0400E30005BC0A004E
:0E00E7005024C005C002C00390000A1201138D
:0E00F500AC82AE8315811581D0057F00ED2C05
:0A010300FCEF3EFE8C028E0380C864
:05010D008A828B8322B1
:0101120022CA
:06003700E478FFF6D8FD9D
:080015007900E94400601B7A48
:05001D0000900139789C
:030022000075A0C6
:0A00250000E493F2A308B8000205FE
:08002F00A0D9F4DAF275A0FF7C
:0E01130074FE2581F8E68582F0A4C0E08582A6
:0E012100F018E6A4F582D0E025F0C58386F044
:06012F00A42583F58322E4
:08003D007800E84400600A7934
:030045000075A0A3
:0600480000E4F309D8FCFE
:08004E007800E84400600C7921
:0B00560000900000E4F0A3D8FCD9FAF1
:03000800758107F8
:0A000B00120135E5826003020003D4
:0401350075820022AD
:00000001FF
