:03000000020008F3
:0300610002000397
:0500030012008380FEE5
:08006400AA82AB837C007D0041
:0E006C00C3EC9AED64808BF063F08095F05049
:08007A00070CBC00ED0D80EA4B
:01008200225B
:0D00830075A00090271012006475A0019078
:07009000271012006480EC50
:06003700E478FFF6D8FD9D
:080015007900E94400601B7A48
:05001D000090009B783B
:030022000075A0C6
:0A00250000E493F2A308B8000205FE
:08002F00A0D9F4DAF275A0FF7C
:08003D007800E84400600A7934
:030045000075A0A3
:0600480000E4F309D8FCFE
:08004E007800E84400600C7921
:0B00560000900000E4F0A3D8FCD9FAF1
:03000800758107F8
:0A000B00120097E582600302000373
:04009700758200224C
:00000001FF
