:03000000020008F3
:0300610002000397
:0500030012036180FE04
:0E00640075823812007C75820F12007C758246
:0A0072000612007C75820102007C7A
:0E007C00AA82C002120090D002C2A0C2A18AC5
:06008A0090D2A2C2A222E6
:070090007590FFC2A0D2A190
:0B009700D2A28590E0C2A220E7F62272
:0600A20075820102007CE2
:0A00A800C008858108AA82AB837CA2
:0D00B200807D00BA0107BB00047CC07D000A
:0C00BF00E50824FCF8E62CFC08E63D8C6B
:0700CB008212007CD0082224
:0E00D200AA82C002120090D002D2A0C2A18A5F
:0600E00090D2A2C2A22290
:0600E600AA82AB83ACF01E
:0E00EC008A828B838CF012049FFD60188D8237
:0E00FA00C002C003C0041200D2D004D003D054
:08010800020ABA00DF0B80DCE3
:0101100022CC
:0E011100E582FAC4540F9005AF93F582C00248
:0E011F001200D2D002740F5A9005AF93F582F1
:03012D000200D2FB
:0D013000AA82AB838B048C82C002C0031234
:0B013D000111D003D0028A82020111E0
:0A014800C008858108C082C083E56D
:0C01520081240AF581E5082403F8762BCF
:0A015E00E50824FBF8E5082404F985
:0C016800E6F70809E6F70809E6F7A80822
:0C0174000808E630E712E5082403F876DE
:0C0180002DA80808C3E496F608E496F6E3
:0C018C00E5082404F886040886020886B2
:03019800037D00E4
:0E019B00C002C003C004C005740AC0E0E4C086
:0C01A900E0A8080886820886831204BBC8
:0E01B500AE8215811581D005D004D003D00292
:0E01C30074302E8C828A838BF0120464A3ACFD
:0E01D10082AA830D8D06C002C003C004C005C3
:0C01DF00740AC0E0E4C0E0A808088682B2
:0C01EB000886831204F8A80808A6820801
:0E01F700A68315811581D005D004D003D00257
:0B020500A80808E60846708E8D06E58C
:0C021000082403F8B62D0E8C828A838B24
:09021C00F0742D120464ED04FEDF
:0B022500EEC313FAA80808E4F608F680
:0C0230008A057F00A80808C3E69D08E6C8
:0E023C0064808FF063F08095F04003020301B0
:0C024A00C002E5082404F8EE26FBE408DE
:0B02560036FC088605E5082404F8A922
:0C0261000809E726C0E009E70836C0E005
:0C026D0008E6C0E0E508240AF8D0E0F63E
:0C02790018D0E0F618D0E0F6E5082408E4
:0C028500F886820886830886F0E50824CD
:0D02910007F912049FF78B828C838DF0E536
:0C029E00082407F8E61204648E077D00B7
:0502AA001FBFFF011D54
:0C02AF00A80808EFC396FFED0896FDE5D7
:0C02BB00082404F8EF26FFED0836FD08CB
:0D02C70086028F828D838AF012049FFBE572
:0C02D400082408F886820886830886F05B
:0C02E000EB1204648F828D838AF0E50825
:0C02EC002407F8E6120464A8080806B60F
:0402F80000020806F2
:0502FC00D002020230F7
:0C030100E5082404F8EE26FEE40836FAB5
:0E030D000886038E828A838BF0E412046485D6
:05031B000881D008225A
:0A032000C008E581F5082407F58107
:0C032A00AA82AB83AC080C8C057E007F1F
:0E03360040C004C005C006C0078A828B831237
:0E0344000148158115811581D0047A007B4097
:0C0352008C828A838BF01200E685088103
:03035E00D00822A2
:0B0361001200647A017B007C017D002B
:0E036C00C002C003C004C005E4C0E0C0E090C1
:0E037A0000001200A8158115819005C075F0D5
:0D038800801200E6E4C0E0C0E09000011229
:0D03950000A8158115819005CB75F0801230
:0E03A20000E6D005D004D003D0028A828B83FF
:0E03B000C002C003C004C0051203209005CE99
:0E03BE0075F0801200E6D005D0048C828D838D
:0E03CC00C004C0051203209005D075F0801209
:0E03DA0000E6D005D004D003D002C002C0035C
:0D03E800C004C005C004C0058A828B8312CA
:0E03F500047DAE82AF8315811581D005D00442
:09040300D003D0020ABA00010B7B
:05040C000CBC00010D15
:0D0411008E828F83C002C003C004C005129C
:0E041E00032090024E120431D005D004D0030A
:05042C00D00202036C88
:04043100AA82AB836D
:0E043500C3E49A74808BF063F08095F0502041
:040443007C787D0044
:0E044700C3E49C74808DF063F08095F0500744
:070455001CBCFFEE1D80EB53
:07045C001ABAFFD51B80D284
:010463002276
:0E05AF00303132333435363738394142434427
:0305BD00454600B0
:0B05C000433131303135323331390026
:0305CB003A3A00B9
:0205CE005800D3
:0205D0003D00EC
:06003700E478FFF6D8FD9D
:080015007900E94400601B7A48
:05001D00009005D278FF
:030022000075A0C6
:0A00250000E493F2A308B8000205FE
:08002F00A0D9F4DAF275A0FF7C
:0E04640020F71030F6118883A88220F507F6E5
:05047200A88375830062
:010477002262
:03047800F280F718
:02047B00F0226D
:0E047D0074FE2581F8E68582F0A4C0E0858239
:0E048B00F018E6A4F582D0E025F0C58386F0D7
:06049900A42583F5832277
:08003D007800E84400600A7934
:030045000075A0A3
:0600480000E4F309D8FCFE
:08004E007800E84400600C7921
:0B00560000900000E4F0A3D8FCD9FAF1
:03000800758108F7
:0A000B001205ABE58260030200035A
:0E049F0020F71430F6148883A88220F507E6B3
:0604AD00A8837583002204
:0304B300E280F7ED
:0304B600E49322AA
:0204B900E0223F
:0E04BB00C2D5E58330E70DD2D5E4C39582F5B6
:0604C90082E49583F58337
:0E04CF00E58124FEF8E630E70918E4C396F64E
:0404DD00E40896F6A3
:0E04E100860118860012053F30D50BE4C39546
:0804EF0082F582E49583F58398
:0104F70022E2
:0E04F800C2D5E58330E70DD2D5E4C39582F579
:0605060082E49583F583F9
:0E050C00E58124FEF8E630E70AB2D518E4C314
:05051A0096F6E40896CE
:0E051F00F918E6F812058430D50BE4C3958276
:07052D00F582E49583F583DC
:0105340022A4
:0A053500E58124FEF8860118860017
:06053F00E84960367A0174
:0E054500E825E0F8E933400EF9E58298E583F9
:060553009940030A80EC50
:02055900C3E9F4
:05055B0013F9E813F89C
:0E056000C3E58298F5F0E583994005F58385A3
:02056E00F08219
:09057000C3E913F9E813F8DAE716
:01057900225F
:0A057A00E58124FEF8E6F918E6F822
:050584007A10E4FBFC0D
:0E058900E58225E0F582E58333F583EB33FB55
:0E059700EC33FCEB98F5F0EC994006FCABF071
:0305A5004382018D
:0305A800DADF2275
:0405AB007582002233
:00000001FF
