:03000000020008F3
:0300610002000397
:0500030012036180FE04
:0E00640075823812007C75820F12007C758246
:0A0072000612007C75820102007C7A
:0E007C00AA82C002120090D002C2A0C2A18AC5
:06008A0090D2A2C2A222E6
:070090007590FFC2A0D2A190
:0B009700D2A28590E0C2A220E7F62272
:0600A20075820102007CE2
:0A00A800C008858108AA82AB837CA2
:0D00B200807D00BA0107BB00047CC07D000A
:0C00BF00E50824FCF8E62CFC08E63D8C6B
:0700CB008212007CD0082224
:0E00D200AA82C002120090D002D2A0C2A18A5F
:0600E00090D2A2C2A22290
:0600E600AA82AB83ACF01E
:0E00EC008A828B838CF01204F8FD60188D82DE
:0E00FA00C002C003C0041200D2D004D003D054
:08010800020ABA00DF0B80DCE3
:0101100022CC
:0E011100E582FAC4540F90060893F582C002EE
:0E011F001200D2D002740F5A90060893F58297
:03012D000200D2FB
:0D013000AA82AB838B048C82C002C0031234
:0B013D000111D003D0028A82020111E0
:0A014800C008858108C082C083E56D
:0C01520081240AF581E5082403F8762BCF
:0A015E00E50824FBF8E5082404F985
:0C016800E6F70809E6F70809E6F7A80822
:0C0174000808E630E712E5082403F876DE
:0C0180002DA80808C3E496F608E496F6E3
:0C018C00E5082404F886040886020886B2
:03019800037D00E4
:0E019B00C002C003C004C005740AC0E0E4C086
:0C01A900E0A8080886820886831205146E
:0E01B500AE8215811581D005D004D003D00292
:0E01C30074302E8C828A838BF01204DFA3AC82
:0E01D10082AA830D8D06C002C003C004C005C3
:0C01DF00740AC0E0E4C0E0A808088682B2
:0C01EB00088683120551A80808A68208A7
:0E01F700A68315811581D005D004D003D00257
:0B020500A80808E60846708E8D06E58C
:0C021000082403F8B62D0E8C828A838B24
:09021C00F0742D1204DFED04FE64
:0B022500EEC313FAA80808E4F608F680
:0C0230008A057F00A80808C3E69D08E6C8
:0E023C0064808FF063F08095F04003020301B0
:0C024A00C002E5082404F8EE26FBE408DE
:0B02560036FC088605E5082404F8A922
:0C0261000809E726C0E009E70836C0E005
:0C026D0008E6C0E0E508240AF8D0E0F63E
:0C02790018D0E0F618D0E0F6E5082408E4
:0C028500F886820886830886F0E50824CD
:0D02910007F91204F8F78B828C838DF0E5DD
:0C029E00082407F8E61204DF8E077D003C
:0502AA001FBFFF011D54
:0C02AF00A80808EFC396FFED0896FDE5D7
:0C02BB00082404F8EF26FFED0836FD08CB
:0D02C70086028F828D838AF01204F8FBE519
:0C02D400082408F886820886830886F05B
:0C02E000EB1204DF8F828D838AF0E508AA
:0C02EC002407F8E61204DFA8080806B694
:0402F80000020806F2
:0502FC00D002020230F7
:0C030100E5082404F8EE26FEE40836FAB5
:0E030D000886038E828A838BF0E41204DF855B
:05031B000881D008225A
:0A032000C008E581F5082407F58107
:0C032A00AA82AB83AC080C8C057E007F1F
:0E03360040C004C005C006C0078A828B831237
:0E0344000148158115811581D0047A007B4097
:0C0352008C828A838BF01200E685088103
:03035E00D00822A2
:0A036100C008E581F5082411F581BC
:0C036B00A808087648E804F977657402D9
:0E03770028F9776C740328F9776C740428F960
:0E038500776F740528F9772C740628F9772015
:0E039300740728F97738740828F97730740950
:0E03A10028F97735740A28F97731740B28F99A
:0E03AF007721740C28F97720740D28F9772037
:0E03BD00740E28F97720740F28F97720741039
:0E03CB0028C000F87600C001120064E4C0E013
:0D03D900C0E09000011200A8158115819070
:0E03E600061975F0801200E6D001D0008802E2
:0203F4007B008C
:0303F600BB100039
:0503F900400302047F37
:0E03FE00C002C003C000C001E4C0E0C0E09037
:0E040C0000001200A815811581D001D000D08B
:0E041A0003D0028A047D007E408C828D838E8A
:0E042800F0C002C003C000C0011200E6D00107
:0A043600D000D003D0027CFF7DFF50
:050440001CBCFF011DC2
:09044500EC4D70F786047D01FE08
:0E044E00C3ED9410EE648094805020C0048DA5
:0E045C0007EF1428FFED28FCC000A80486045A
:0B046A00A807A604D0000DBD00010E85
:04047500D00480D55A
:06047900A7040B0203F6CC
:0E047F00C0001200A2E4C0E0C0E09000001235
:0E048D0000A815811581D00088027B007C40FC
:0E049B008A828B838CF01200E6E4C0E0C0E0A1
:0E04A9009000011200A81581158175820C12B9
:0904B700011190062A75F0801273
:0904C00000E67582221201119080
:0C04C900062F75F0801200E690019812DA
:0204D500032002
:0804D70080FE850881D0082297
:0E0608003031323334353637383941424344CD
:0306160045460056
:0E0619004368696E2D536869756820536869DF
:0306270065680003
:05062A0068202A2000F9
:05062F0068203D2000E1
:06003700E478FFF6D8FD9D
:080015007900E94400601B7A48
:05001D0000900634789C
:030022000075A0C6
:0A00250000E493F2A308B8000205FE
:08002F00A0D9F4DAF275A0FF7C
:0E04DF0020F71030F6118883A88220F507F66A
:0504ED00A883758300E7
:0104F20022E7
:0304F300F280F79D
:0204F600F022F2
:08003D007800E84400600A7934
:030045000075A0A3
:0600480000E4F309D8FCFE
:08004E007800E84400600C7921
:0B00560000900000E4F0A3D8FCD9FAF1
:03000800758108F7
:0A000B00120604E582600302000300
:0E04F80020F71430F6148883A88220F507E65A
:06050600A88375830022AA
:03050C00E280F793
:03050F00E4932250
:02051200E022E5
:0E051400C2D5E58330E70DD2D5E4C39582F55C
:0605220082E49583F583DD
:0E052800E58124FEF8E630E70918E4C396F6F4
:04053600E40896F649
:0E053A00860118860012059830D50BE4C39593
:0805480082F582E49583F5833E
:010550002288
:0E055100C2D5E58330E70DD2D5E4C39582F51F
:06055F0082E49583F583A0
:0E056500E58124FEF8E630E70AB2D518E4C3BB
:0505730096F6E4089675
:0E057800F918E6F81205DD30D50BE4C39582C4
:07058600F582E49583F58383
:01058D00224B
:0A058E00E58124FEF88601188600BE
:06059800E84960367A011B
:0E059E00E825E0F8E933400EF9E58298E583A0
:0605AC009940030A80ECF7
:0205B200C3E99B
:0505B40013F9E813F843
:0E05B900C3E58298F5F0E583994005F583854A
:0205C700F082C0
:0905C900C3E913F9E813F8DAE7BD
:0105D2002206
:0A05D300E58124FEF8E6F918E6F8C9
:0505DD007A10E4FBFCB4
:0E05E200E58225E0F582E58333F583EB33FBFC
:0E05F000EC33FCEB98F5F0EC994006FCABF018
:0305FE0043820134
:03060100DADF221B
:0406040075820022D9
:00000001FF
