:0600000002002B0200BC0F
:03000B000200BD33
:030013000200BE2A
:03001B000200BF21
:030023000200C018
:0300840002002651
:0500260012008780FEBE
:06008700E5807A007B0019
:0E008D00C3EA9405EB648094805023C3740290
:0E009B009A74808BF063F08095F0E433FC6083
:0600A900057580FF8005D3
:0500AF00EC7002F58079
:0700B4000ABA00D50B80D24F
:0100BB002222
:0100BC003211
:0100BD003210
:0100BE00320F
:0100BF00320E
:0100C000320D
:06005A00E478FFF6D8FD7A
:080038007900E94400601B7A25
:05004000009000C578EE
:030045000075A0A3
:0A00480000E493F2A308B8000205DB
:08005200A0D9F4DAF275A0FF59
:080060007800E84400600A7911
:030068000075A080
:06006B0000E4F309D8FCDB
:080071007800E84400600C79FE
:0B00790000900000E4F0A3D8FCD9FACE
:03002B00758107D5
:0A002E001200C1E582600302002603
:0400C1007582002222
:00000001FF
