:0600000002002B0200A02B
:03000B000200A14F
:030013000200A246
:03001B000200A33D
:030023000200A434
:0300840002002651
:0500260012008780FEBE
:040087007A007B0080
:05008B000ABA00010BA0
:0E009000C3740A9A74808BF063F08095F05070
:02009E00EC2252
:0100A000322D
:0100A100322C
:0100A200322B
:0100A300322A
:0100A4003229
:06005A00E478FFF6D8FD7A
:080038007900E94400601B7A25
:05004000009000A9780A
:030045000075A0A3
:0A00480000E493F2A308B8000205DB
:08005200A0D9F4DAF275A0FF59
:080060007800E84400600A7911
:030068000075A080
:06006B0000E4F309D8FCDB
:080071007800E84400600C79FE
:0B00790000900000E4F0A3D8FCD9FACE
:03002B00758107D5
:0A002E001200A5E58260030200261F
:0400A500758200223E
:00000001FF
