:0600000002002B0200AD1E
:03000B000200AE42
:030013000200AF39
:03001B000200B030
:030023000200B127
:0300840002002651
:0500260012008780FEBE
:040087007A007B0080
:0E008B00C3EA9405EB648094805016C374029F
:0E0099009A74808BF063F08095F0E4330ABA1D
:0500A70000E20B80DF08
:0100AC002231
:0100AD003220
:0100AE00321F
:0100AF00321E
:0100B000321D
:0100B100321C
:06005A00E478FFF6D8FD7A
:080038007900E94400601B7A25
:05004000009000B678FD
:030045000075A0A3
:0A00480000E493F2A308B8000205DB
:08005200A0D9F4DAF275A0FF59
:080060007800E84400600A7911
:030068000075A080
:06006B0000E4F309D8FCDB
:080071007800E84400600C79FE
:0B00790000900000E4F0A3D8FCD9FACE
:03002B00758107D5
:0A002E001200B2E582600302002612
:0400B2007582002231
:00000001FF
