:0600000002002B02009536
:03000B000200965A
:0300130002009751
:03001B0002009848
:030023000200993F
:0300840002002651
:0500260012008780FEBE
:040087007A0A7B0076
:05008B001ABAFF011B81
:05009000EA4B70F722AD
:010095003238
:010096003237
:010097003236
:010098003235
:010099003234
:06005A00E478FFF6D8FD7A
:080038007900E94400601B7A25
:050040000090009E7815
:030045000075A0A3
:0A00480000E493F2A308B8000205DB
:08005200A0D9F4DAF275A0FF59
:080060007800E84400600A7911
:030068000075A080
:06006B0000E4F309D8FCDB
:080071007800E84400600C79FE
:0B00790000900000E4F0A3D8FCD9FACE
:03002B00758107D5
:0A002E0012009AE58260030200262A
:04009A007582002249
:00000001FF
