:0600000002002B0200C00B
:03000B000200C12F
:030013000200C226
:03001B000200C31D
:030023000200C414
:0300840002002651
:0500260012008780FEBE
:06008700D2B07A007B00FC
:0E008D00AC807D00C3EA9CEB64808DF063F0D4
:0C009B008095F050070ABA00E90B80E6DF
:0E00A700C2B0AA807B0074FFC39AFAE49BFBF0
:0500B5001ABAFF011B57
:0600BA00EA4B70F780C75D
:0100C000320D
:0100C100320C
:0100C200320B
:0100C300320A
:0100C4003209
:06005A00E478FFF6D8FD7A
:080038007900E94400601B7A25
:05004000009000C978EA
:030045000075A0A3
:0A00480000E493F2A308B8000205DB
:08005200A0D9F4DAF275A0FF59
:080060007800E84400600A7911
:030068000075A080
:06006B0000E4F309D8FCDB
:080071007800E84400600C79FE
:0B00790000900000E4F0A3D8FCD9FACE
:03002B00758107D5
:0A002E001200C5E5826003020026FF
:0400C500758200221E
:00000001FF
