:0600000002002B02009B30
:03000B0002009C54
:0300130002009D4B
:03001B0002009E42
:0300230002009F39
:0300840002002651
:0500260012008780FEBE
:04008700C2B0C2B190
:0E008B0030B2FD74FFC395A0F590D2B1D2B093
:0200990080ECF9
:01009B003232
:01009C003231
:01009D003230
:01009E00322F
:01009F00322E
:06005A00E478FFF6D8FD7A
:080038007900E94400601B7A25
:05004000009000A4780F
:030045000075A0A3
:0A00480000E493F2A308B8000205DB
:08005200A0D9F4DAF275A0FF59
:080060007800E84400600A7911
:030068000075A080
:06006B0000E4F309D8FCDB
:080071007800E84400600C79FE
:0B00790000900000E4F0A3D8FCD9FACE
:03002B00758107D5
:0A002E001200A0E582600302002624
:0400A0007582002243
:00000001FF
