:03000000020008F3
:0300610002000397
:0500030012006480FE04
:05006400C20075080157
:0C006900209017A200E433FA7B00740121
:0B007500C39AFAE49BFB4A24FF9200B0
:030080003090FDC0
:0A00830030001CC3E5086480948877
:07008D00500BE5082508F502
:06009400088508808027AA
:08009A00750801758001801F4B
:0C00A200C374818508F063F08095F05075
:0900AE000CE508A2E713F5088532
:0400B7000880800637
:0600BB00750808758008BD
:0400C1007A6F7B01D6
:0500C5001ABAFF011B47
:0600CA00EA4B70F780997B
:06003700E478FFF6D8FD9D
:080015007900E94400601B7A48
:05001D00009000D47802
:030022000075A0C6
:0A00250000E493F2A308B8000205FE
:08002F00A0D9F4DAF275A0FF7C
:08003D007800E84400600A7934
:030045000075A0A3
:0600480000E4F309D8FCFE
:08004E007800E84400600C7921
:0B00560000900000E4F0A3D8FCD9FAF1
:03000800758120DF
:0A000B001200D0E58260030200033A
:0400D0007582002213
:00000001FF
