:03000000020008F3
:0300610002000397
:050003001204AB80FEB9
:0E00640053877F53892F438920758DFDC29FDE
:0B007200D29ED29CD28EC299C298226E
:03007D00858299E0
:0500800010990280FB55
:010085002258
:0500860010980280FB50
:04008B0085998222AF
:05008F0010980280FB47
:0A00940085998212007D8599822271
:06009E00AA82AB83ACF066
:0E00A4008A828B838CF01204F5FD60188D8229
:0E00B200C002C003C00412007DD004D003D0F1
:0800C000020ABA00DF0B80DC2C
:0100C8002215
:0600C900AA82AB83ACF03B
:0E00CF00C002C003C00412008FAD82D004D066
:0E00DD0003D0028A828B838CF0ED1204BABD30
:0400EB000D0280077B
:0700EF000ABA00DC0B80D906
:0A00F6008A828B838CF0E40204BAC6
:0A010000C008858108C082C083E5B5
:0C010A0081240AF581E5082403F8762B17
:0A011600E50824FBF8E5082404F9CD
:0C012000E6F70809E6F70809E6F7A8086A
:0C012C000808E630E712E5082403F87626
:0C0138002DA80808C3E496F608E496F62B
:0C014400E5082404F886040886020886FA
:03015000037D002C
:0E015300C002C003C004C005740AC0E0E4C0CE
:0C016100E0A808088682088683120511B9
:0E016D00AE8215811581D005D004D003D002DA
:0E017B0074302E8C828A838BF01204BAA3ACEF
:0E01890082AA830D8D06C002C003C004C0050B
:0C019700740AC0E0E4C0E0A808088682FA
:0C01A30008868312054EA80808A68208F2
:0E01AF00A68315811581D005D004D003D0029F
:0B01BD00A80808E60846708E8D06E5D5
:0C01C800082403F8B62D0E8C828A838B6D
:0901D400F0742D1204BAED04FED2
:0B01DD00EEC313FAA80808E4F608F6C9
:0C01E8008A057F00A80808C3E69D08E611
:0E01F40064808FF063F08095F040030202B942
:0C020200C002E5082404F8EE26FBE40826
:0B020E0036FC088605E5082404F8A96A
:0C0219000809E726C0E009E70836C0E04D
:0C02250008E6C0E0E508240AF8D0E0F686
:0C02310018D0E0F618D0E0F6E50824082C
:0C023D00F886820886830886F0E5082415
:0D02490007F91204F5F78B828C838DF0E528
:0C025600082407F8E61204BA8E077D00A9
:050262001FBFFF011D9C
:0C026700A80808EFC396FFED0896FDE51F
:0C027300082404F8EF26FFED0836FD0813
:0D027F0086028F828D838AF01204F5FBE564
:0C028C00082408F886820886830886F0A3
:0C029800EB1204BA8F828D838AF0E50817
:0C02A4002407F8E61204BAA8080806B601
:0402B000000208063A
:0502B400D0020201E888
:0C02B900E5082404F8EE26FEE40836FAFE
:0E02C5000886038E828A838BF0E41204BA85C9
:0502D3000881D00822A3
:0A02D800C008E581F5082404F58153
:0C02E200AA82AB83ACF07D007E00A8086F
:0E02EE0008762B8A828B838CF01204F5FFBFFA
:0C02FC002D0AA80808762D0ABA00010B94
:0C030800A8080808A60208A60308A6041E
:0C031400A808080886820886830886F086
:0D0320001204F5FB6039C003C005C0069053
:0E032D00000A1204D3AF82AA8315811581D075
:0E033B0003EB3395E0FCEB24D0FBEC34FFFC2D
:0C034900EB2FFFEC3AFA8F058A06A8089B
:08035500080806B600020806C4
:02035D0080B569
:0C035F00A80808B62D07C3E49DFDE49E2D
:01036B00FE93
:0A036C008D828E83850881D008225F
:0A037600C008E581F5082407F581B1
:0C038000AA82AB83AC080C8C057E007FC9
:0E038C0040C004C005C006C0078A828B8312E1
:0E039A000100158115811581D0047A007B4089
:0C03A8008C828A838BF012009E850881F5
:0303B400D008224C
:0A03B700C008E581F5082407F58170
:0C03C100AA080A8A037C007D408B828C15
:0E03CD00838DF0C0021200C9D0027B007C407C
:0C03DB008A828B838CF01202D885088186
:0303E700D0082219
:0E03EA00E582FAC4540F90060593F582C00216
:0E03F80012007DD002740F5A90060593F58214
:0304060002007D74
:0D040900AA82AB838B048C82C002C0031258
:0B04160003EAD003D0028A820203EA4E
:0E04210012008FAA82C3EA648094B040117466
:0E042F00B98AF063F08095F04006EA24D0F51B
:02043D00822219
:0E043F00C3EA648094C1401174C68AF063F071
:0B044D008095F0400674C92AF5822259
:0E045800C3EA648094E1401174E68AF063F018
:0B0466008095F0400674A92AF5822260
:04047100758200226E
:0E047500120421E582C454F0FAC002120421E0
:09048300AB82D002EB2AF58222C3
:0E048C00120475AB827A00C002C00312047520
:0E049A00AC82D003D0027D00EC2AF582ED3B4F
:0304A800F58322B7
:0304AB00120064D8
:0C04AE007590FFAA908A821203EA80F485
:0E0605003031323334353637383941424344D0
:0306130045460059
:06003700E478FFF6D8FD9D
:080015007900E94400601B7A48
:05001D000090061678BA
:030022000075A0C6
:0A00250000E493F2A308B8000205FE
:08002F00A0D9F4DAF275A0FF7C
:0E04BA0020F71030F6118883A88220F507F68F
:0504C800A8837583000C
:0104CD00220C
:0304CE00F280F7C2
:0204D100F02217
:0E04D30074FE2581F8E68582F0A4C0E08582E3
:0E04E100F018E6A4F582D0E025F0C58386F081
:0604EF00A42583F5832221
:08003D007800E84400600A7934
:030045000075A0A3
:0600480000E4F309D8FCFE
:08004E007800E84400600C7921
:0B00560000900000E4F0A3D8FCD9FAF1
:03000800758108F7
:0A000B00120601E582600302000303
:0E04F50020F71430F6148883A88220F507E65D
:06050300A88375830022AD
:03050900E280F796
:03050C00E4932253
:02050F00E022E8
:0E051100C2D5E58330E70DD2D5E4C39582F55F
:06051F0082E49583F583E0
:0E052500E58124FEF8E630E70918E4C396F6F7
:04053300E40896F64C
:0E053700860118860012059530D50BE4C39599
:0805450082F582E49583F58341
:01054D00228B
:0E054E00C2D5E58330E70DD2D5E4C39582F522
:06055C0082E49583F583A3
:0E056200E58124FEF8E630E70AB2D518E4C3BE
:0505700096F6E4089678
:0E057500F918E6F81205DA30D50BE4C39582CA
:07058300F582E49583F58386
:01058A00224E
:0A058B00E58124FEF88601188600C1
:06059500E84960367A011E
:0E059B00E825E0F8E933400EF9E58298E583A3
:0605A9009940030A80ECFA
:0205AF00C3E99E
:0505B10013F9E813F846
:0E05B600C3E58298F5F0E583994005F583854D
:0205C400F082C3
:0905C600C3E913F9E813F8DAE7C0
:0105CF002209
:0A05D000E58124FEF8E6F918E6F8CC
:0505DA007A10E4FBFCB7
:0E05DF00E58225E0F582E58333F583EB33FBFF
:0E05ED00EC33FCEB98F5F0EC994006FCABF01B
:0305FB0043820137
:0305FE00DADF221F
:0406010075820022DC
:00000001FF
