:03000000020008F3
:0300610002000397
:0500030012049780FECD
:060064003080FD758A00EA
:08006A002080FD7432B58A000C
:040072005002D32243
:02007600C322A3
:0A007800C008E581F5082428F58191
:0E008200AA82AB83ACF05389F1438901D28C82
:08009000758C00758A00C28026
:0800980074B5258C50FAD280EA
:0300A0002080FDC0
:0300A3003080FDAD
:0800A6002080FDAD080D7E0075
:0300AE00BE280069
:0E00B1005024EE2DF8C002C003C004C005C0EC
:0E00BF0006C000120064E433D000D006D00565
:0A00CD00D004D003D002F60E80D755
:0E00D7003080FD8A828B838CF0E41205247E3B
:0100E500001A
:0300E600BE080051
:0E00E900502B8A828B838CF012053D25E0FFA0
:0E00F7008A828B838CF0120524EE2DF8C00552
:0E010500E62FFF8A828B838CF01205240ED029
:030113000580D094
:0C011600E50824FBF88602088603088632
:0D012200048A828B838CF0E41205247E0099
:03012F00BE080007
:0E013200502D8A828B838CF012053D25E0FF54
:0E0140008A828B838CF012052474102E2DF809
:0E014E00C005E62FFF8A828B838CF0120524F9
:05015C000ED00580CE6D
:06016100850881D0082290
:0E01670075823812017F75820F12017F75823A
:0A0175000612017F75820102017F6E
:0E017F00AA82C002120193D002C2A0C2A18ABD
:06018D0090D2A2C2A222E2
:070193007590FFC2A0D2A18C
:0B019A00D2A28590E0C2A220E7F6226E
:0601A50075820102017FDA
:0A01AB00C008858108AA82AB837C9E
:0D01B500807D00BA0107BB00047CC07D0006
:0C01C200E50824FCF8E62CFC08E63D8C67
:0701CE008212017FD008221C
:0E01D500AA82C002120193D002D2A0C2A18A57
:0601E30090D2A2C2A2228C
:0601E900AA82AB83ACF01A
:0E01EF008A828B838CF012053DFD60188D8294
:0E01FD00C002C003C0041201D5D004D003D04C
:08020B00020ABA00DF0B80DCDF
:0102130022C8
:0E021400E582FAC4540F90064D93F582C002A5
:0E0222001201D5D002740F5A90064D93F5824A
:030230000201D5F3
:0D023300AA82AB838B048C82C002C0031230
:0B0240000214D003D0028A82020214D4
:0A024B00C008858108C082C083E569
:0C02550081240AF581E5082403F8762BCB
:0A026100E50824FBF8E5082404F981
:0C026B00E6F70809E6F70809E6F7A8081E
:0C0277000808E630E712E5082403F876DA
:0C0283002DA80808C3E496F608E496F6DF
:0C028F00E5082404F886040886020886AE
:03029B00037D00E0
:0E029E00C002C003C004C005740AC0E0E4C082
:0C02AC00E0A80808868208868312055925
:0E02B800AE8215811581D005D004D003D0028E
:0E02C60074302E8C828A838BF0120524A3AC38
:0E02D40082AA830D8D06C002C003C004C005BF
:0C02E200740AC0E0E4C0E0A808088682AE
:0C02EE00088683120596A80808A682085E
:0E02FA00A68315811581D005D004D003D00253
:0B030800A80808E60846708E8D06E588
:0C031300082403F8B62D0E8C828A838B20
:09031F00F0742D120524ED04FE1A
:0B032800EEC313FAA80808E4F608F67C
:0C0333008A057F00A80808C3E69D08E6C4
:0E033F0064808FF063F08095F04003020404A8
:0C034D00C002E5082404F8EE26FBE408DA
:0B03590036FC088605E5082404F8A91E
:0C0364000809E726C0E009E70836C0E001
:0C03700008E6C0E0E508240AF8D0E0F63A
:0C037C0018D0E0F618D0E0F6E5082408E0
:0C038800F886820886830886F0E50824C9
:0D03940007F912053DF78B828C838DF0E593
:0C03A100082407F8E61205248E077D00F2
:0503AD001FBFFF011D50
:0C03B200A80808EFC396FFED0896FDE5D3
:0C03BE00082404F8EF26FFED0836FD08C7
:0D03CA0086028F828D838AF012053DFBE5CF
:0C03D700082408F886820886830886F057
:0C03E300EB1205248F828D838AF0E50860
:0C03EF002407F8E6120524A8080806B64A
:0403FB0000020806EE
:0503FF00D002020333EF
:0C040400E5082404F8EE26FEE40836FAB1
:0E0410000886038E828A838BF0E41205248511
:05041E000881D0082256
:0A042300C008E581F5082407F58103
:0C042D00AA82AB83AC080C8C057E007F1B
:0E04390040C004C005C006C0078A828B831233
:0E044700024B158115811581D0047A007B408F
:0C0455008C828A838BF01201E9850881FB
:03046100D008229E
:04046400AA82AB833A
:0E046800C3E49A74808BF063F08095F050200E
:040476007C787D0011
:0E047A00C3E49C74808DF063F08095F0500711
:070488001CBCFFEE1D80EB20
:07048F001ABAFFD51B80D251
:010496002243
:0A049700C008858108058105811267
:0204A1000167F1
:0A04A300E5082402FA7B007C40AD5E
:0C04AD00080D7E007F40C002C003C004A8
:0E04B9008D828E838FF01200781581158115CB
:0E04C70081E4C0E0C0E09000001201AB15819E
:0C04D500158190065E75F0801201E9A808
:0B04E100080886027B008A828B8312D1
:0E04EC000423E4C0E0C0E09000011201AB1553
:0D04FA0081158190066975F0801201E9A856
:0C05070008080886027B008A828B8312A1
:0905130004239007D012046402D5
:06051C0004A3850881D054
:020522000822AD
:0E064D00303132333435363738394142434488
:03065B0045460011
:0B065E0048756D69646974793A2000EA
:0E06690054656D70657261747572653A20009B
:06003700E478FFF6D8FD9D
:080015007900E94400601B7A48
:05001D00009006777859
:030022000075A0C6
:0A00250000E493F2A308B8000205FE
:08002F00A0D9F4DAF275A0FF7C
:0E05240020F71030F6118883A88220F507F624
:05053200A883758300A1
:0105370022A1
:03053800F280F757
:02053B00F022AC
:08003D007800E84400600A7934
:030045000075A0A3
:0600480000E4F309D8FCFE
:08004E007800E84400600C7921
:0B00560000900000E4F0A3D8FCD9FAF1
:03000800758108F7
:0A000B00120649E5826003020003BB
:0E053D0020F71430F6148883A88220F507E614
:06054B00A8837583002265
:03055100E280F74E
:03055400E493220B
:02055700E022A0
:0E055900C2D5E58330E70DD2D5E4C39582F517
:0605670082E49583F58398
:0E056D00E58124FEF8E630E70918E4C396F6AF
:04057B00E40896F604
:0E057F0086011886001205DD30D50BE4C39509
:08058D0082F582E49583F583F9
:010595002243
:0E059600C2D5E58330E70DD2D5E4C39582F5DA
:0605A40082E49583F5835B
:0E05AA00E58124FEF8E630E70AB2D518E4C376
:0505B80096F6E4089630
:0E05BD00F918E6F812062230D50BE4C3958239
:0705CB00F582E49583F5833E
:0105D2002206
:0A05D300E58124FEF8860118860079
:0605DD00E84960367A01D6
:0E05E300E825E0F8E933400EF9E58298E5835B
:0605F1009940030A80ECB2
:0205F700C3E956
:0505F90013F9E813F8FE
:0E05FE00C3E58298F5F0E583994005F5838505
:02060C00F0827A
:09060E00C3E913F9E813F8DAE777
:0106170022C0
:0A061800E58124FEF8E6F918E6F883
:050622007A10E4FBFC6E
:0E062700E58225E0F582E58333F583EB33FBB6
:0E063500EC33FCEB98F5F0EC994006FCABF0D2
:03064300438201EE
:03064600DADF22D6
:040649007582002294
:00000001FF
