:03000000020008F3
:0300610002000397
:05000300120ACD80FE91
:0E00640075823812007C75820F12007C758246
:0A0072000612007C75820102007C7A
:0E007C00AA82C002120090D002C2A0C2A18AC5
:06008A0090D2A2C2A222E6
:070090007590FFC2A0D2A190
:0B009700D2A28590E0C2A220E7F62272
:0600A20075820102007CE2
:0A00A800C008858108AA82AB837CA2
:0D00B200807D00BA0107BB00047CC07D000A
:0C00BF00E50824FCF8E62CFC08E63D8C6B
:0700CB008212007CD0082224
:0E00D200AA82C002120090D002D2A0C2A18A5F
:0600E00090D2A2C2A22290
:0600E600AA82AB83ACF01E
:0E00EC008A828B838CF0120CCCFD60188D8202
:0E00FA00C002C003C0041200D2D004D003D054
:08010800020ABA00DF0B80DCE3
:0101100022CC
:0E011100E582FAC4540F900DDC93F582C00213
:0E011F001200D2D002740F5A900DDC93F582BC
:03012D000200D2FB
:0D013000AA82AB838B048C82C002C0031234
:0B013D000111D003D0028A82020111E0
:0A014800C008858108C082C083E56D
:0C01520081240AF581E5082403F8762BCF
:0A015E00E50824FBF8E5082404F985
:0C016800E6F70809E6F70809E6F7A80822
:0C0174000808E630E712E5082403F876DE
:0C0180002DA80808C3E496F608E496F6E3
:0C018C00E5082404F886040886020886B2
:03019800037D00E4
:0E019B00C002C003C004C005740AC0E0E4C086
:0C01A900E0A808088682088683120CE893
:0E01B500AE8215811581D005D004D003D00292
:0E01C30074302E8C828A838BF0120C91A3ACC8
:0E01D10082AA830D8D06C002C003C004C005C3
:0C01DF00740AC0E0E4C0E0A808088682B2
:0C01EB00088683120D25A80808A68208CB
:0E01F700A68315811581D005D004D003D00257
:0B020500A80808E60846708E8D06E58C
:0C021000082403F8B62D0E8C828A838B24
:09021C00F0742D120C91ED04FEAA
:0B022500EEC313FAA80808E4F608F680
:0C0230008A057F00A80808C3E69D08E6C8
:0E023C0064808FF063F08095F04003020301B0
:0C024A00C002E5082404F8EE26FBE408DE
:0B02560036FC088605E5082404F8A922
:0C0261000809E726C0E009E70836C0E005
:0C026D0008E6C0E0E508240AF8D0E0F63E
:0C02790018D0E0F618D0E0F6E5082408E4
:0C028500F886820886830886F0E50824CD
:0D02910007F9120CCCF78B828C838DF0E501
:0C029E00082407F8E6120C918E077D0082
:0502AA001FBFFF011D54
:0C02AF00A80808EFC396FFED0896FDE5D7
:0C02BB00082404F8EF26FFED0836FD08CB
:0D02C70086028F828D838AF0120CCCFBE53D
:0C02D400082408F886820886830886F05B
:0C02E000EB120C918F828D838AF0E508F0
:0C02EC002407F8E6120C91A8080806B6DA
:0402F80000020806F2
:0502FC00D002020230F7
:0C030100E5082404F8EE26FEE40836FAB5
:0E030D000886038E828A838BF0E4120C9185A1
:05031B000881D008225A
:0A032000C008E581F5082407F58107
:0C032A00AA82AB83AC080C8C057E007F1F
:0E03360040C004C005C006C0078A828B831237
:0E0344000148158115811581D0047A007B4097
:0C0352008C828A838BF01200E685088103
:03035E00D00822A2
:0B036100D281D280208104758201222D
:07036C0020800475820122CC
:08037300C281C28075820022E4
:07037B00C281D280D2812271
:04038200AA827B00D0
:03038600BB0800B1
:050389005015BA8000D0
:06038E004004D281800250
:02039400C28124
:0A039600D280C280EA2AFA0B80E64A
:0D03A000D281D280A281E433F582C2802296
:0803AD00AA827B00D2817C00D2
:0303B500BC080081
:0B03B800500EEB2BFBD2803081010BBC
:0503C300C2800C80ED7A
:0C03C800EA24FF9281D280C2808B822246
:0A03D400C008858108E5822582FA41
:0C03DE004302A0E50824FCF80886037C1C
:0A03EA0000E50824FCF886057E00FB
:0E03F400C002C003C004C005C006120361AF02
:0E04020082D006D005D004D003D002BF010284
:0204100080E288
:0D0412008A82C002C003C004C005C00612EB
:0E041F000382AF82D006D005D004D003D002F5
:0E042D00BF0119C002C003C004C005C0061202
:0E043B00037BD006D005D004D003D00280ABE6
:0D0449008B82C002C003C004C005C00612B3
:0E0456000382AF82D006D005D004D003D002BE
:0E046400BF011AC002C003C004C005C00612CA
:0D047200037BD006D005D004D003D00202D9
:02047F0003F484
:0D0481008D82C002C003C004C005C0061279
:0E048E000382AF82D006D005D004D003D00286
:0E049C00BF011AC002C003C004C005C0061292
:0D04AA00037BD006D005D004D003D00202A1
:0204B70003F44C
:0C04B900E50824FBF88682C002C003C0E6
:0E04C50004C005C006120382AF82D006D00527
:0E04D300D004D003D002BF011AC002C003C083
:0E04E10004C005C00612037BD006D005D0046F
:0704EF00D003D0020203F468
:0604F60012037BD0082276
:0A04FC00C008858108E5822582FA18
:0C05060074A04AFBE50824FCF8088604F9
:0C0512007D00E50824FCF886067F00EA66
:04051E000444A0FAF7
:0D052200C002C003C004C005C006C007121F
:0E052F000361AA82D007D006D005D004D00305
:07053D00BA0104D00280DEC8
:0D0544008B82C003C004C005C006C00712B2
:0E0551000382AA82D007D006D005D004D003C2
:05055F00BA0102800456
:04056400D002801B26
:0E056800C003C004C005C006C00712037BD04C
:0D05760007D006D005D004D003D002809F2E
:0E058300C0028C82C003C004C005C006C007C1
:0E059100120382AA82D007D006D005D004D073
:06059F0003BA0102800412
:0405A500D002801CE4
:0E05A900C003C004C005C006C00712037BD00B
:0E05B70007D006D005D004D003D002020522E2
:0E05C500C0028E82C003C004C005C006C0077D
:0E05D300120382AA82D007D006D005D004D031
:0605E10003BA01028004D0
:0405E700D002801CA2
:0E05EB00C003C004C005C006C00712037BD0C9
:0E05F90007D006D005D004D003D002020522A0
:0D060700C002C003C004C005C006C0071239
:0E0614000361AA82D007D006D005D004D0031F
:08062200BA0105D00202052215
:0E062A00D002C0038A82C002C004C005C00610
:0E063800C007120382AB82D007D006D005D0D7
:0806460004D002BB0102800494
:04064E00D003802035
:0E065200D003C002C003C004C005C006C0072C
:0E06600012037BD007D006D005D004D003D003
:04066E00020205225D
:0E0672007582011203ADAA82C00212037BD072
:06068000028A82D008226C
:0E06860053877F53892F438920758DFDC29FB6
:0B069400D29ED29CD28EC299C2982246
:03069F00858299B8
:0506A20010990280FB2D
:0106A7002230
:0506A80010980280FB28
:0406AD008599822287
:0506B10010980280FB1F
:0A06B60085998212069F8599822221
:0606C000AA82AB83ACF03E
:0E06C6008A828B838CF0120CCCFD60188D8222
:0E06D400C002C003C00412069FD004D003D0A1
:0806E200020ABA00DF0B80DC04
:0106EA0022ED
:0606EB00AA82AB83ACF013
:0E06F100C002C003C0041206A8AD82D004D01F
:0E06FF0003D0028A828B838CF0ED120C91BD29
:04070D000D02800752
:070711000ABA00DC0B80D9DD
:0A0718008A828B838CF0E4020C91BE
:0A072200C008858108C082C083E58D
:0C072C0081240AF581E5082403F8762BEF
:0A073800E50824FBF8E5082404F9A5
:0C074200E6F70809E6F70809E6F7A80842
:0C074E000808E630E712E5082403F876FE
:0C075A002DA80808C3E496F608E496F603
:0C076600E5082404F886040886020886D2
:03077200037D0004
:0E077500C002C003C004C005740AC0E0E4C0A6
:0C078300E0A808088682088683120CE8B3
:0E078F00AE8215811581D005D004D003D002B2
:0E079D0074302E8C828A838BF0120C91A3ACE8
:0E07AB0082AA830D8D06C002C003C004C005E3
:0C07B900740AC0E0E4C0E0A808088682D2
:0C07C500088683120D25A80808A68208EB
:0E07D100A68315811581D005D004D003D00277
:0B07DF00A80808E60846708E8D06E5AD
:0C07EA00082403F8B62D0E8C828A838B45
:0907F600F0742D120C91ED04FECB
:0B07FF00EEC313FAA80808E4F608F6A1
:0C080A008A057F00A80808C3E69D08E6E8
:0E08160064808FF063F08095F040030208DBF1
:0C082400C002E5082404F8EE26FBE408FE
:0B08300036FC088605E5082404F8A942
:0C083B000809E726C0E009E70836C0E025
:0C08470008E6C0E0E508240AF8D0E0F65E
:0C08530018D0E0F618D0E0F6E508240804
:0C085F00F886820886830886F0E50824ED
:0D086B0007F9120CCCF78B828C838DF0E521
:0C087800082407F8E6120C918E077D00A2
:050884001FBFFF011D74
:0C088900A80808EFC396FFED0896FDE5F7
:0C089500082404F8EF26FFED0836FD08EB
:0D08A10086028F828D838AF0120CCCFBE55D
:0C08AE00082408F886820886830886F07B
:0C08BA00EB120C918F828D838AF0E50810
:0C08C6002407F8E6120C91A8080806B6FA
:0408D2000002080612
:0508D600D00202080A37
:0C08DB00E5082404F8EE26FEE40836FAD6
:0E08E7000886038E828A838BF0E4120C9185C2
:0508F5000881D008227B
:0A08FA00C008E581F5082404F5812B
:0C090400AA82AB83ACF07D007E00A80846
:0E09100008762B8A828B838CF0120CCCFFBFF2
:0C091E002D0AA80808762D0ABA00010B6B
:0C092A00A8080808A60208A60308A604F6
:0C093600A808080886820886830886F05E
:0D094200120CCCFB6039C003C005C006904C
:0E094F00000A120CAAAF82AA8315811581D06E
:0E095D0003EB3395E0FCEB24D0FBEC34FFFC05
:0C096B00EB2FFFEC3AFA8F058A06A80873
:08097700080806B6000208069C
:02097F0080B541
:0C098100A80808B62D07C3E49DFDE49E05
:01098D00FE6B
:0A098E008D828E83850881D0082237
:0A099800C008E581F5082407F58189
:0C09A200AA82AB83AC080C8C057E007FA1
:0E09AE0040C004C005C006C0078A828B8312B9
:0E09BC000722158115811581D0047A007B4039
:0C09CA008C828A838BF01206C0850881A5
:0309D600D0082224
:0A09D900C008E581F5082407F58148
:0C09E300AA080A8A037C007D408B828CED
:0E09EF00838DF0C0021206EBD0027B007C402C
:0C09FD008A828B838CF01208FA85088136
:030A0900D00822F0
:0E0A0C00E582FAC4540F900DED93F582C002FE
:0E0A1A0012069FD002740F5A900DED93F582D4
:030A280002069F24
:0D0A2B00AA82AB838B048C82C002C0031230
:0B0A38000A0CD003D0028A82020A0CD4
:0E0A43001206B1AA82C3EA648094B040117416
:0E0A5100B98AF063F08095F04006EA24D0F5F3
:020A5F008222F1
:0E0A6100C3EA648094C1401174C68AF063F049
:0B0A6F008095F0400674C92AF5822231
:0E0A7A00C3EA648094E1401174E68AF063F0F0
:0B0A88008095F0400674A92AF5822238
:040A93007582002246
:0E0A9700120A43E582C454F0FAC002120A4368
:090AA500AB82D002EB2AF582229B
:0E0AAE00120A97AB827A00C002C003120A97A8
:0E0ABC00AC82D003D0027D00EC2AF582ED3B27
:030ACA00F583228F
:060ACD001206861200640F
:0E0AD300E4C0E0C0E09000001200A8158115FC
:0B0AE10081900DFE75F0801206C0121F
:0D0AEC0006B1AA82900E1575F080C00212AE
:090AF90006C0D002BA30028003ED
:030B0200020BAC37
:0E0B0500C002E4C0E0C0E09000001200A8159D
:0D0B1300811581900E1875F0801200E6909B
:090B20000E2575F0801206C012CA
:0E0B29000AAEAB82AC83900E1575F080C0034F
:0C0B3700C0041206C0900E2F75F0801252
:080B430006C0120A97AD829072
:0E0B4B000E1575F080C0051206C0D005D0044E
:0E0B5900D003C003C004C005C005C003C00423
:0E0B67007582001203D4158115811581E4C03A
:0E0B7500E0C0E09000011200A81581158190EB
:0E0B83000E3675F0801200E6D005D004D003C7
:0E0B91008B828C83C005120320900E3A75F003
:0D0B9F00801200E6D0058D82120111D002F7
:050BAC00BA31028003D4
:030BB100020C55DE
:0E0BB400E4C0E0C0E09000001200A81581151A
:0B0BC20081900E3F75F0801200E6905D
:090BCD000E2575F0801206C0121D
:0E0BD6000AAEAA82AD838A038D04900E1575B7
:0E0BE400F080C003C0041206C0900E2F75F002
:0E0BF200801206C0D004D003C003C004C003AC
:0D0C0000C0047582001204FC1581158112DC
:090C0D000A0C900E1575F080121E
:0E0C160006C0E4C0E0C0E09000011200A81586
:0E0C2400811581900E3675F0801200E6D00426
:0E0C3200D0038B828C83C003C0041203209079
:0C0C40000E3A75F0801200E6758200127A
:090C4C0004FC158115811201114F
:090C550090024E120C5E020AD35B
:040C5E00AA82AB8338
:0E0C6200C3E49A74808BF063F08095F050200C
:040C70007C787D000F
:0E0C7400C3E49C74808DF063F08095F050070F
:070C82001CBCFFEE1D80EB1E
:070C89001ABAFFD51B80D24F
:010C90002241
:0E0DDC003031323334353637383941424344F2
:030DEA004546007B
:0E0DED003031323334353637383941424344E1
:030DFB004546006A
:0E0DFE000A5B2057726974653A30207C202011
:090E0C00526561643A31205D0079
:030E15000D0A00C3
:0D0E180057726974652020202020202000E2
:0A0E2500416464726573733A2000A3
:070E2F00446174613A2000E8
:040E3600413A20001D
:050E3A007C443A200099
:060E3F0052656164200011
:06003700E478FFF6D8FD9D
:080015007900E94400601B7A48
:05001D0000900E457883
:030022000075A0C6
:0A00250000E493F2A308B8000205FE
:08002F00A0D9F4DAF275A0FF7C
:0E0C910020F71030F6118883A88220F507F6B0
:050C9F00A8837583002D
:010CA400222D
:030CA500F280F7E3
:020CA800F02238
:0E0CAA0074FE2581F8E68582F0A4C0E0858204
:0E0CB800F018E6A4F582D0E025F0C58386F0A2
:060CC600A42583F5832242
:08003D007800E84400600A7934
:030045000075A0A3
:0600480000E4F309D8FCFE
:08004E007800E84400600C7921
:0B00560000900000E4F0A3D8FCD9FAF1
:03000800758108F7
:0A000B00120DD8E582600302000325
:0E0CCC0020F71430F6148883A88220F507E67E
:060CDA00A88375830022CF
:030CE000E280F7B8
:030CE300E4932275
:020CE600E0220A
:0E0CE800C2D5E58330E70DD2D5E4C39582F581
:060CF60082E49583F58302
:0E0CFC00E58124FEF8E630E70918E4C396F619
:040D0A00E40896F66D
:0E0D0E008601188600120D6C30D50BE4C395DB
:080D1C0082F582E49583F58362
:010D240022AC
:0E0D2500C2D5E58330E70DD2D5E4C39582F543
:060D330082E49583F583C4
:0E0D3900E58124FEF8E630E70AB2D518E4C3DF
:050D470096F6E4089699
:0E0D4C00F918E6F8120DB130D50BE4C395820C
:070D5A00F582E49583F583A7
:010D6100226F
:0A0D6200E58124FEF88601188600E2
:060D6C00E84960367A013F
:0E0D7200E825E0F8E933400EF9E58298E583C4
:060D80009940030A80EC1B
:020D8600C3E9BF
:050D880013F9E813F867
:0E0D8D00C3E58298F5F0E583994005F583856E
:020D9B00F082E4
:090D9D00C3E913F9E813F8DAE7E1
:010DA600222A
:0A0DA700E58124FEF8E6F918E6F8ED
:050DB1007A10E4FBFCD8
:0E0DB600E58225E0F582E58333F583EB33FB20
:0E0DC400EC33FCEB98F5F0EC994006FCABF03C
:030DD20043820158
:030DD500DADF2240
:040DD80075820022FE
:00000001FF
